:100000000C94F5020C9412030C9412030C9412033A
:100010000C9412030C9412030C9412030C9412030C
:100020000C9412030C9412030C9412030C941203FC
:100030000C9412030C9412030C94801D0C94120364
:100040000C9412030C9412030C9412030C941203DC
:100050000C9412030C9412030C9412030C941203CC
:100060000C9412030C94120307634236B79BD8A773
:100070001A39685618AEBAAB558C1D3CB7CC5763CD
:10008000BD6DEDFD753EF6177231BF000000803F7B
:1000900008000000BE922449123EABAAAA2ABECD97
:1000A000CCCC4C3E00000080BEABAAAAAA3E000009
:1000B0000000BF000000803F000000000008417801
:1000C000D3BB4387D1133D190E3CC3BD4282AD2B38
:1000D0003E68EC8276BED98FE1A93E4C80EFFFBE30
:1000E00001C4FF7F3F000000000000000000003E50
:1000F0005B4F5B3E3E6B4F6B3E1C3E7C3E1C183C98
:100100007E3C181C577D571C1C5E7F5E1C00183CF3
:100110001800FFE7C3E7FF0018241800FFE7DBE73C
:10012000FF30483A060E2629792926407F05050723
:10013000407F05253F5A3CE73C5A7F3E1C1C08087F
:100140001C1C3E7F14227F22145F5F005F5F060944
:100150007F017F006689956A606060606094A2FF9D
:10016000A29408047E040810207E201008082A1C8F
:1001700008081C2A08081E101010100C1E0C1E0C5B
:1001800030383E3830060E3E0E06000000000000FB
:10019000005F00000007000700147F147F14242A6A
:1001A0007F2A12231308646236495620500008073C
:1001B0000300001C2241000041221C002A1C7F1C5D
:1001C0002A08083E0808008070300008080808085F
:1001D000000060600020100804023E5149453E00C6
:1001E000427F400072494949462141494D33181424
:1001F000127F1027454545393C4A49493141211173
:1002000009073649494936464949291E0000140064
:100210000000403400000008142241141414141487
:10022000004122140802015909063E415D594E7CE5
:100230001211127C7F494949363E414141227F419A
:1002400041413E7F494949417F090909013E4141F8
:1002500051737F0808087F00417F41002040413FE3
:10026000017F081422417F404040407F021C027FF2
:100270007F0408107F3E4141413E7F090909063E47
:100280004151215E7F091929462649494932030116
:100290007F01033F4040403F1F2040201F3F403828
:1002A000403F631408146303047804036159494D03
:1002B00043007F4141410204081020004141417F39
:1002C00004020102044040404040000307080020AF
:1002D000545478407F2844443838444444283844AF
:1002E00044287F385454541800087E090218A4A4E6
:1002F0009C787F0804047800447D40002040403D05
:10030000007F1028440000417F40007C047804787E
:100310007C080404783844444438FC182424181811
:10032000242418FC7C08040408485454542404046D
:100330003F44243C4040207C1C2040201C3C40305A
:10034000403C44281028444C9090907C4464544C89
:1003500044000836410000007700000041360800E4
:1003600002010204023C2623263C1EA1A161123A8E
:100370004040207A385454555921555579412254DA
:10038000547842215554784020545579400C1E52DF
:100390007212395555555939545454593955545484
:1003A000580000457C410002457D420001457C40EB
:1003B0007D1211127DF0282528F07C54554500202F
:1003C00054547C547C0A097F4932494949323A44A1
:1003D00044443A324A4848303A4141217A3A42400C
:1003E0002078009DA0A07D3D4242423D3D404040DE
:1003F0003D3C24FF2424487E4943662B2FFC2F2BB1
:10040000FF0929F620C0887E090320545479410051
:1004100000447D413048484A32384040227A007AD0
:100420000A0A727D0D19317D2629292F28262929AE
:10043000292630484D4020380808080808080808D0
:10044000382F10C8ACBA2F102834FA00007B0000F7
:1004500008142A142222142A14085500550055AAFB
:1004600055AA55AAFF55FF55FF000000FF001010C8
:1004700010FF00141414FF001010FF00FF1010F004
:1004800010F0141414FC001414F700FF0000FF0017
:10049000FF1414F404FC141417101F10101F101F65
:1004A0001414141F00101010F0000000001F101092
:1004B00010101F10101010F010000000FF1010108E
:1004C000101010101010FF10000000FF140000FFAB
:1004D00000FF00001F10170000FC04F41414171094
:1004E000171414F404F40000FF00F7141414141487
:1004F0001414F700F7141414171410101F101F14FD
:100500001414F4141010F010F000001F101F00005D
:10051000001F14000000FC140000F010F01010FF89
:1005200010FF141414FF141010101F00000000F02E
:1005300010FFFFFFFFFFF0F0F0F0F0FFFFFF000003
:10054000000000FFFF0F0F0F0F0F3844443844FC2A
:100550004A4A4A347E02020606027E027E02635541
:100560004941633844443C04407E201E2006027EFC
:10057000020299A5E7A5991C2A492A1C4C7201720E
:100580004C304A4D4D303048784830BC625A463D78
:100590003E494949007E0101017E2A2A2A2A2A442D
:1005A000445F444440514A444040444A5140000062
:1005B000FF0103E080FF000008086B6B083612366D
:1005C0002436060F090F060000181800000010104E
:1005D000003040FF0101001F01011E00191D17120C
:1005E000003C3C3C3C000000000011241FBECFEF4B
:1005F000D8E0DEBFCDBF11E0A0E0B1E0E8EFF0E56C
:1006000002C005900D92AE36B107D9F722E0AEE6F2
:10061000B1E001C01D92A031B207E1F70E947B1F3B
:100620000C947A280C9400000F931F9343984298DF
:1006300020E12BB921E025B94198419A429A292F0E
:1006400030E0D901AC7FBB27B595A795F901F695A8
:10065000FE2FEE27F795E795EA2BEBB9269521704B
:10066000A22F25B94198419A9C012C7F33273595BB
:100670002795F82FF795FF27F795F22BFBB981FB0C
:10068000222720F9B22F25B94198419A41505109AA
:10069000610971098A019B01689415F836952795BF
:1006A000179507951694D1F7981711F090E148C067
:1006B00090E112C04198419A4198419A4198419ADB
:1006C0004198419A4198419A4198419A4198419A5A
:1006D0004198419A815071F70150110910F0892F0A
:1006E000E9CF4F738FEF840F442309F43DC0419845
:1006F000419A4198419A8150D0F736C0EBB9A5B9DB
:100700004198419AFBB9B5B94198419AEBB9A5B95D
:100710004198419AFBB9B5B94198419AEBB9A5B94D
:100720004198419AFBB9B5B94198419AEBB9A5B93D
:100730004198419AFBB9B5B94198419A8150F1F677
:100740000150110910F0892FD9CF4F738FEF840F0B
:10075000442351F0EBB9A5B94198419AFBB9B5B919
:100760004198419A8150B0F7439A1F910F91089593
:100770004298982F9C7F969540E8849F9001112481
:10078000292B2BB98695817085B94198419A429A57
:10079000262F2C7F269530E8639FC0011124822BE1
:1007A0008BB96695617065B94198419A08954298F0
:1007B000292F3327F901EC7FFF27F595E795A9014C
:1007C0005695542F4427579547954E2B4BB9269550
:1007D000217025B94198419A9C012C7F332735958A
:1007E0002795982F979599279795292B2BB986951B
:1007F000817085B94198419A429A872F9927AC0117
:100800004C7F5527559547959C013695322F2227C9
:1008100037952795242B2BB98695817085B94198FA
:10082000419ACB018C7F992795958795962F97951F
:1008300099279795892B8BB96695617065B9419811
:10084000419A0895837090E0909387018093860188
:10085000809186019091870181309105B9F01CF457
:10086000892B39F01FC08230910519F0039771F080
:1008700019C080EF90E090938B0180938A0180E40F
:1008800091E090938901809388010CC080E491E00D
:1008900090938B0180938A0180EF90E0909389017F
:1008A0008093880180918601909187018230910523
:1008B00041F08330910541F0019749F060E370E128
:1008C00008C060E070E105C068E170E102C068E264
:1008D00070E183E090E00E94D7030895AF92BF9249
:1008E000CF92DF92EF92FF920F931F93CF93DF93FC
:1008F000EB017A01890143982091860130918701AB
:1009000022303105B1F02330310551F1213031056C
:10091000C9F52FEE30E0A901401B510B261B370B08
:10092000C82ED92EA22EB32E87017901EC01CA015F
:100930002DC02FEE30E0A9014E195F097901E81AA8
:10094000F90A8FE391E09C01201B310B8C01061BFF
:10095000170BC02ED12EAE2CBF2CE901CA0116C038
:100960002FE331E0A9014E195F09B901681B790B2A
:10097000CB01C62ED92EAC2EBD2E78018B01CE0117
:10098000EA0104C0C62EDD2EA82EB92EBC0187E3D5
:1009900090E00E94D703B70186E390E00E94D7035E
:1009A000BE0189E390E00E94D703B80188E390E09C
:1009B0000E94D7036A2D7B2D80E290E00E94D7032E
:1009C0006C2D7D2D81E290E00E94D70360E082E2F1
:1009D0000E94B803439ADF91CF911F910F91FF902E
:1009E000EF90DF90CF90BF90AF9008950F931F933B
:1009F000CF93DF93EA0189011C161D06C4F59923E4
:100A0000B4F120918A0130918B01821793077CF514
:100A100020918801309189016217730744F5AB0179
:100A20004C0F5D1F9A0121503109332304F17723C4
:100A30001CF4EA0160E070E0409188015091890166
:100A4000241735074CF0C0918801D09189019E018F
:100A500021503109C61BD70BAC010E946E04AE01B8
:100A6000662757FD6095762FC8010E941403DF9119
:100A7000CF911F910F9108950F931F93CF93DF9301
:100A8000EA0189011C161D06C4F57723B4F12091F3
:100A9000880130918901621773077CF520918A01E2
:100AA00030918B018217930744F59C01240F351F69
:100AB000A90141505109552304F199231CF4E9017E
:100AC00080E090E020918A0130918B01421753071A
:100AD0004CF0C0918A01D0918B01AE014150510977
:100AE000C81BD90B9B010E946E04AE01662757FDFF
:100AF0006095762FC8010E941403DF91CF911F915A
:100B00000F9108950F931F93CF93DF93EB018A0109
:100B1000439820918601309187012230310569F098
:100B200023303105B9F021303105D1F42FEE30E01A
:100B3000261B370BEC01C90113C02FEE30E0A901D1
:100B4000481B590BCA012FE331E0A901461B570B83
:100B5000EA0106C02FE331E0281B390BCB01E90184
:100B6000BC0180E290E00E94D703BE0181E290E0E8
:100B70000E94D703B80182E290E00E94D703439A13
:100B8000DF91CF911F910F9108952F923F924F9235
:100B90005F926F927F928F929F92AF92BF92CF920D
:100BA000DF92EF92FF920F931F93CF93DF93EC01AD
:100BB0007B016A01C901861B970BAC0122F4442713
:100BC0005527481B590BB6016C1B7D0BCB01992394
:100BD00024F488279927861B970B71E060E084171F
:100BE00095070CF070E0A72EB62EA114B10451F0B9
:100BF0009C2D8D2D6901292F382F9C2F8D2FE701DA
:100C0000E92EF82ECC16DD0654F49E2D8F2D790199
:100C1000292F382F9C2F8D2FE601C92ED82E160193
:100C20002C1A3D0AC9018E199F093C0122F4662441
:100C30007724681A790A410133201CF48FEF881A4F
:100C4000980A95948794E216F30624F44424439476
:100C5000512C03C044244A94542CCC16DD06CCF00D
:100C6000A114B10431F0A801BE01C7010E948205A0
:100C700005C0A801B701CE010E9482058618970819
:100C800022F4E40CF51C820C931C2196CC16DD0694
:100C90003CF7DF91CF911F910F91FF90EF90DF9084
:100CA000CF90BF90AF909F908F907F906F905F900C
:100CB0004F903F902F9008958EEF8AB981E084B9CC
:100CC0000895181619066CF420E030E0E7EBFBE01D
:100CD0003197F1F700C000002F5F3F4F2817390709
:100CE000A9F708950E945C06439A419A429A449853
:100CF00088EC90E00E946106449A88EC90E00E94A3
:100D00006106439842981BB815B84198419A41989A
:100D1000419A4198419A4198419A409A439A419AFE
:100D2000429888EC90E00E94610643986AE170E086
:100D300081E190E00E94D70361E271E382E190E0FB
:100D40000E94D7036CE670E083E190E00E94D70335
:100D500069E472E484E190E00E94D70360E078E007
:100D600080E190E00E94D7038EE190E00E9461064E
:100D70006AE171E081E190E00E94D7038EE190E0AA
:100D80000E9461066AE173E081E190E00E94D7036E
:100D90008EE190E00E9461066AE177E081E190E0F7
:100DA0000E94D7038EE190E00E9461066AE17FE035
:100DB00081E190E00E94D70384E190E00E94610607
:100DC0006AE37FE081E190E00E94D70384E690E04F
:100DD0000E94610668E271E081E090E00E94D70322
:100DE00060E071E082E090E00E94D70360E370E190
:100DF00083E090E00E94D70362E170E187E090E039
:100E00000E94D70363E073E088E090E00E94D7037C
:100E100060E071E18BE090E00E94D70360E070E059
:100E20008CE090E00E94D70361E078E18FE090E0F1
:100E30000E94D70360E270E085E190E00E94D70352
:100E400062E170E087E090E00E94D70388E290E0E2
:100E50000E94610663E170E087E090E00E94D703A2
:100E600067E170E087E090E00E94D703439A83E057
:100E700090E0909387018093860180EF90E09093BB
:100E80008B0180938A0180E491E0909389018093A3
:100E9000880180918601909187010E9422042FE3AE
:100EA00031E04FEE50E060E070E080E090E00E94C2
:100EB0006E040895CF93DF93EC0120918801309167
:100EC000890140918A0150918B0121503109415093
:100ED000510960E070E080E090E00E946E04209193
:100EE0008A0130918B01A0918801B09189010E9403
:100EF000E027AB01BC01CE010E941403DF91CF912A
:100F00000895AF92BF92CF92DF92EF92FF920F932C
:100F10001F93CF93DF93EC015B0169017C01E40E29
:100F2000F51E8E159F0554F49801A601B501CE015A
:100F30000E94F6042196CE15DF05B4F3DF91CF9120
:100F40001F910F91FF90EF90DF90CF90BF90AF90E7
:100F500008952F923F924F925F926F927F928F925D
:100F60009F92AF92BF92CF92DF92EF92FF920F9338
:100F70001F93CF93DF93CDB7DEB72F970FB6F894BB
:100F8000DEBF0FBECDBF9B878A8749011A830983C5
:100F90001E2D80918A0190918B012A853B8528170F
:100FA00039070CF0BDC0209188013091890162178A
:100FB00073070CF0B5C06E2C712C9301220F331FF8
:100FC000260D371D220F331F8A859B85280F391F59
:100FD0002150310933230CF4A3C0C301880F991F9A
:100FE000880F991F880F991F860F971F01979923C4
:100FF0000CF496C0403B08F04F5F842F90E09C01BA
:10100000220F331F220F331FD901A80FB91FBD872D
:10101000AC87B6E0BD83212C412E512C6E837F839B
:10102000E4E0E2150CF45AC0EC85FD85E20DF11DFB
:1010300027FCFA95E651FF4F349051C030FE13C0A3
:10104000FE85F13039F4A401B501888599850E94A7
:10105000820522C084019301A301B7018B819C8189
:101060000E94810719C029813A8128153905A1F00C
:101070003E85313041F449815A81B5018885998591
:101080000E94820509C009811A819301A301B6015A
:101090008B819C810E94810736944F8541504F87F8
:1010A000E40CF51CC40CD51C5FEFA51AB50A411160
:1010B000C5CF1E8523948D8181508D838111B0CF42
:1010C00080918A0190918B01AA85BB85A817B907E9
:1010D0003CF5809188019091890122C0312C822DAC
:1010E000992787FD9095689E9001699E300D789EA6
:1010F000300D1124EA85FB85E20FF31FFC83EB839F
:10110000EE80FF80AE2CBF2CCE2CDF2C08E02A8591
:101110003B85280F391F398728870F871E878ECF79
:101120002F960FB6F894DEBF0FBECDBFDF91CF91E3
:101130001F910F91FF90EF90DF90CF90BF90AF90F5
:101140009F908F907F906F905F904F903F902F90E7
:1011500008959B0121503109121613068CF4DC010D
:10116000A60FB71FFC0140E050E080819E91919353
:101170008C934F5F5F4F2150310942175307ACF3F7
:101180000895EF92FF920F931F93CF93DF938B01FC
:101190007A01009781F0FB01C0E0D0E02AE030E066
:1011A0002196B9010E94AD27805D8193862F972FEC
:1011B0000097B1F702C0C0E0D0E0CE15DF0564F4BF
:1011C000F801EC0FFD1FC8018E0D9F1D20E3219338
:1011D000E817F907E1F7E701BE01C8010E94A90875
:1011E000F801EC0FFD1F1082CE01DF91CF911F910E
:1011F0000F91FF90EF9008952F923F924F925F9240
:101200006F927F928F929F92AF92BF92CF92DF9216
:10121000EF92FF920F931F93CF93DF936B017C01AB
:10122000EA0189010E94C3244B015C0141E050E0C6
:10123000BE01C4010E94C1081C0101151105B1F1D4
:10124000FE01E80FF91F8EE28083B801882777FD41
:101250008095982F0E94F6249B01AC0160E070E01D
:1012600080E291E40E940D262B013C01B401882705
:1012700077FD8095982F0E94F6249B01AC01C70151
:10128000B6010E94F2239B01AC018FEF281A380AA5
:10129000C20DD31DC301B2010E94AA250E94C3241E
:1012A000DC01CB01A801BE010E94C108DF91CF91F2
:1012B0001F910F91FF90EF90DF90CF90BF90AF9074
:1012C0009F908F907F906F905F904F903F902F9066
:1012D00008953F924F925F926F927F928F929F926A
:1012E000AF92BF92CF92DF92EF92FF920F931F9334
:1012F000CF93DF933C014B01EA01590168013E2C79
:10130000F12C4E2C512C1AC0FE01E80FF91FF49C51
:101310009001F59C300D1124C901880F991F280FE9
:10132000391FC901880F991FE32C8601950140815F
:10133000B401860D971D0E94A907F3948F2D90E0AC
:10134000FE0101900020E9F73197EC1BFD0B8E1791
:101350009F07D0F2DF91CF911F910F91FF90EF90F7
:10136000DF90CF90BF90AF909F908F907F906F90C5
:101370005F904F903F9008952F923F924F925F92CF
:101380006F927F928F929F92AF92BF92CF92DF9295
:10139000EF92FF920F931F93CF93DF93CDB7DEB7FA
:1013A0002A970FB6F894DEBF0FBECDBF5C016A016D
:1013B0001C830B8301E010E0041B150B442455240F
:1013C000441A550A440C551C141615060CF07AC024
:1013D0003B0181E0681A710888248394912C922F34
:1013E00091709983EB81FC813196FE83ED832270AD
:1013F0002A839A868986450178876F83170111238E
:1014000044F0F1E0CF1AD10882E0480E511C040DDF
:10141000151DA984BA847501EE0CFF1CC701019645
:10142000080F191F99819923F1F0A601440F551F48
:101430004F5F5F4FEB81FC814E0F5F1F91016F810A
:1014400078856C197D09C501880D991D0E94F604E7
:1014500091014D815E814E0D5F1DB301C4018C0D64
:101460009D1D0E94F604FA81FF2301F1A601440F9D
:10147000551F4F5F5F4F8B819C81480F591F910112
:101480006F8178856C197D09C401E985FA858E1B09
:101490009F0B0E94F6044D815E814E0D5F1D9101F0
:1014A000B301C4018C199D090E94F60489859A85AF
:1014B00001969A87898791E0691A7108AC14BD0476
:1014C0000CF49DCF2A960FB6F894DEBF0FBECDBFA9
:1014D000DF91CF911F910F91FF90EF90DF90CF9010
:1014E000BF90AF909F908F907F906F905F904F9044
:1014F0003F902F900895AF92BF92CF92DF92EF92DC
:10150000FF920F931F93CF93DF936C015B01EA016E
:101510007901440F551F4F5F5F4F6C1B7D0B0E947D
:10152000F60400E010E023E0AE01B501C6010E9420
:10153000BC09DF91CF911F910F91FF90EF90DF9049
:10154000CF90BF90AF9008952F923F924F925F92AD
:101550006F927F928F929F92AF92BF92CF92DF92C3
:10156000EF92FF920F931F93CF93DF93CDB7DEB728
:101570002E970FB6F894DEBF0FBECDBF6C015E870D
:101580004D871C870B8701E010E0041B150BCA0177
:10159000919581959109AC01440F551F5A83498358
:1015A0008D859E85181619060CF0A9C07B0191E067
:1015B000E91AF1083601E1E06E1A71082B01FFEF1C
:1015C0004F1A5F0A16013FEF231A330A812C912C20
:1015D000422F44704F83522F52705887822F887049
:1015E000898721702A87DC82CB827E836D83A980E4
:1015F000BA80CB84DC8411235CF02D853E8521509C
:1016000031093E872D8732E0A30EB11C0A0D1B1D48
:101610004FEF841A940AC401880F991F0196080F8E
:10162000191F5F815523A1F0A6016D817E818D85F3
:101630009E85680F791FC1010E948205A601B20133
:101640008B819C81ED85FE858E0F9F1F0E948205F8
:10165000F885FF23A1F0A6016D817E812D853E8551
:10166000621B730BC1010E948205A601B7018B8129
:101670009C81ED85FE858E0F9F1F0E948205F98556
:10168000FF23A1F0A601B2018B819C812D853E85AF
:10169000821B930B0E948205A6016D817E818D8540
:1016A0009E85680F791FC3010E9482059A85992340
:1016B000A1F0A601B7018B819C81ED85FE858E1B73
:1016C0009F0B0E948205A6016D817E812D853E853E
:1016D000621B730BC3010E94820531E0E31AF1081B
:1016E00041E0641A71085FEF451A550A8FEF281A16
:1016F000380AED85FE858E169F060CF47CCF2E965B
:101700000FB6F894DEBF0FBECDBFDF91CF911F9112
:101710000F91FF90EF90DF90CF90BF90AF909F9090
:101720008F907F906F905F904F903F902F90089593
:101730002F923F924F925F926F927F928F929F92E1
:10174000AF92BF92CF92DF92EF92FF920F931F93CF
:10175000CF93DF9300D000D0CDB7DEB73C015B0163
:101760001A0129011C830B83119501951109000FA2
:10177000111F4801840E951ECB80DC80C80ED91E37
:101780009701A401C6010E943C05C501840D951D69
:101790009A838983BC01615071099701A401C60134
:1017A0000E943C05040D151DEB81FC81AE0EBF1E91
:1017B0009701A801B501C3010E94F604620C731CD5
:1017C0009701A801B501C30101970E94F6048701A2
:1017D00021E04B815C81B501C6010E94A40A8B8186
:1017E0009C81681A790A91E0691A710822E04B819C
:1017F0005C81B501C3010E94A40AA980BA80EB8173
:10180000FC81AE1ABF0AF1E0AF1AB10824E04B81A7
:101810005C81B501C3010E94A40A28E04B815C8170
:10182000B501C6010E94A40A0F900F900F900F906F
:10183000DF91CF911F910F91FF90EF90DF90CF90AC
:10184000BF90AF909F908F907F906F905F904F90E0
:101850003F902F9008958F929F92AF92BF92CF9218
:10186000DF92EF92FF920F931F93CF93DF937C0150
:10187000EA0141985E9839985698559A3A9A5D9A35
:10188000429886E080937E0084E08A95F1F781E0BB
:1018900080937C00E4E0EA95F1F7EAE7F0E08081EC
:1018A00080648083808186FDFDCF80917800909157
:1018B00079008C01EAE7F0E0808180648083808198
:1018C00086FDFDCF80917800909179009C01A80160
:1018D000481B590B4C5F5F4F4930510528F4800F6E
:1018E000911F9C01359527958FEF93E0821B930BF9
:1018F000F701918380835D9855983A98399A419A77
:10190000569AF4E0FA95F1F782E080937C0084E047
:101910008A95F1F7EAE7F0E0808180648083808136
:1019200086FDFDCF80917800909179008C01EAE7E7
:10193000F0E0808180648083808186FDFDCF80918E
:101940007800909179009C01A801481B590B4C5FCD
:101950005F4F4930510528F4800F911F9C01359548
:1019600027958FEF93E0821B930BFB01918380837C
:10197000559A5D985E9A41983998F4E0FA95F1F796
:1019800082E080937C0084E08A95F1F7EAE7F0E05A
:10199000808180648083808186FDFDCF0091780006
:1019A00010917900E4E0EA95F1F781E080937C0002
:1019B000F4E0FA95F1F7EAE7F0E080818064808353
:1019C000808186FDFDCF6091780070917900882735
:1019D00077FD8095982F0E94F6244B015C01B80199
:1019E000882777FD8095982F0E94F6249B01AC01F3
:1019F000C501B4010E945B2420E030E040E85FE3D1
:101A00000E94F2234B015C01F7016081718180E04B
:101A100090E00E94F424A50194010E94AA256B0184
:101A20007C01609184017091850180E090E00E94CA
:101A3000F424A70196010E94AA2520E030E040E8A6
:101A40005AE30E94AA25688379838A839B83109234
:101A50007E005D9A429A419A5E9A559A3A9A399ACC
:101A6000569ADF91CF911F910F91FF90EF90DF90E9
:101A7000CF90BF90AF909F908F90089539985698CF
:101A800041985E98559A5D9A3A9A429884E08A9570
:101A9000F1F781E080937C0084E08A95F1F7EAE732
:101AA000F0E0808180648083808186FDFDCF20917D
:101AB0007800309179008FEF93E0821B930B0895AB
:101AC000CF92DF92EF92FF92CF93DF93559A5D987A
:101AD000569A5E9A42983A984198399886E080934F
:101AE0007E0084E08A95F1F782E080937C00EAE74B
:101AF000F0E0808180648083808186FDFDCFC0918D
:101B00007800D091790094E09A95F1F781E0809384
:101B10007C0084E08A95F1F7EAE7F0E08081806458
:101B20008083808186FDFDCF60917800709179007F
:101B30008091840190918501892B09F44CC08827FC
:101B400077FD8095982F0E94F6246B017C01BE01E1
:101B5000882777FD8095982F0E94F6249B01AC0181
:101B6000C701B6010E945B2420E030E040E85FE35B
:101B70000E94F2236B017C010E943E0DBC0188276C
:101B800077FD8095982F0E94F624A70196010E9468
:101B9000AA256B017C01609184017091850180E030
:101BA00090E00E94F424A70196010E94AA251092B9
:101BB0007E005D9A429A419A5E9A559A3A9A399A6B
:101BC000569A20E030E040E85AE30E94AA250E949D
:101BD000C824CB010FC010927E005D9A429A419AB0
:101BE0005E9A559A3A9A399A569ACE01861B970B65
:101BF00081509C4FDF91CF91FF90EF90DF90CF907D
:101C000008958EBD0DB407FEFDCF8EB50895CF9219
:101C1000DF92EF92FF92589824E02A95F1F780E046
:101C20000E94010EC82ED12CE12CF12CFE2CED2CA3
:101C3000DC2CCC2480E00E94010EC80ED11CE11CDB
:101C4000F11CFE2CED2CDC2CCC2480E00E94010E3B
:101C5000C80ED11CE11CF11CFE2CED2CDC2CCC247C
:101C600080E00E94010E589AA7019601280F311DAD
:101C7000411D511DCA01B901FF90EF90DF90CF9037
:101C8000089582E58CBD0E94070E99238CF4DC0137
:101C9000CB01072E72E1B695A795979587957A9512
:101CA000D1F7702DBC01CD01706C8F6F9F6F09C093
:101CB000052E52E196958795779567955A95D1F7B8
:101CC000502D0E94F42420E030E040E85EE30E94C2
:101CD000AA250895CF93DF93CDB7DEB7C056D109BB
:101CE0000FB6F894DEBF0FBECDBFFE01319680E681
:101CF000DF011D928A95E9F78EE690E09A83898349
:101D000086E990E09C838B838CE890E09E838D83B2
:101D100080E590E098878F8382ED90E09A878987AD
:101D200088E290E09C878B8784E690E0F9990FC069
:101D30004CE050E060E070E0CE0101960E944D283A
:101D400060E070E080E690E00E94652803C00197A3
:101D5000009761F7C05ADF4F0FB6F894DEBF0FBE91
:101D6000CDBFDF91CF91089580E690E00E94472893
:101D700090938301809382018091820190918301ED
:101D80009C01220F331F820F931F880F991F880F0A
:101D9000991F805090400E9447289093770180932C
:101DA000760180918201909183019C01220F331F63
:101DB000820F931F880F991F880F991F8E5F9F4F67
:101DC0000E94472890937901809378018091820145
:101DD000909183019C01220F331F820F931F880F64
:101DE000991F880F991F8C5F9F4F0E9447289093DF
:101DF0007B0180937A0180918201909183019C0103
:101E0000220F331F820F931F880F991F880F991F6E
:101E10008A5F9F4F0E94472890937D0180937C01A9
:101E200080918201909183019C01220F331F820FC8
:101E3000931F880F991F880F991F885F9F4F0E94DB
:101E4000472890937F0180937E0180918201909139
:101E500083019C01220F331F820F931F880F991F4C
:101E6000880F991F865F9F4F0E944728909381019A
:101E70008093800108952F923F924F925F926F92CC
:101E80007F928F929F92AF92BF92CF92DF92EF920A
:101E9000FF920F931F93CF93DF93CDB7DEB7E697F3
:101EA0000FB6F894DEBF0FBECDBF6C017C8B6B8B81
:101EB0005E8B4D8B2901180120918600309187009F
:101EC000388F2F8B88E0E3E1F1E0DE011B96019073
:101ED0000D928A95E1F76894EE24E1F800EE17E0A0
:101EE0002FEF3FEFAE01455F5F4F60E070E088ECA1
:101EF00090E00E9469090E94410E4B015C0120E0C4
:101F000030E04AE754E40E94A62518164CF020E081
:101F100030E0A901C501B4010E945724882324F4AC
:101F20000E94410E4B015C018F89988D64E170E045
:101F30000E94AD27882777FD8095982F0E94F62470
:101F4000A50194010E94F3230F2EFAECEF2EF1E08D
:101F5000FF2EF02D0F2EFEEE6F2EF1E07F2EF02DD6
:101F6000F7011192119211921192E615F705C9F736
:101F70000E9459260E94C8248B01D6012D913C91C4
:101F8000F901E61BF70BBF0180E090E00E94F4240A
:101F90004B015C01AB89BC896D917C9180E090E044
:101FA0000E94F4249B01AC01C501B4010E945B2492
:101FB00069A77AA78BA79CA7809180019091810146
:101FC000609178017091790120917C0130917D01BF
:101FD000620F731F625E7F4F680F791F680F791F52
:101FE000680F791F80E090E00E94F4249B01AC010F
:101FF00060E070E080EA93E40E945B2469A37AA326
:102000008BA39CA360917E0170917F016D5D7F4FDA
:1020100080E090E00E94F4249B01AC0160E070E05D
:102020008CE593E40E945B244B015C01980140E045
:1020300050E02DA73EA74FA758ABEFA2F8A68AEC19
:1020400091E0AC01485D5F4F5AAB49AB898E9A8EE7
:10205000AB8EBC8E7EA26DA251011201BAC1F101FC
:10206000D8018081882329F010928900109288007D
:10207000D8C18C918823A9F31F018D011C920E9465
:10208000410E6B017C0120E030E04AE754E40E94FD
:10209000A62518164CF020E030E0A901C701B601D2
:1020A0000E945724882324F40E94410E6B017C0176
:1020B0006D8D7E8D8F8D98A10E94F624A7019601CB
:1020C0000E94F3236BAB7CAB8DAB9EABA301920163
:1020D0000E94AA250E9459260E94C3244B015C013C
:1020E000AD89BE896D917C9180E090E00E94F424DE
:1020F00029A13AA14BA15CA10E94AA250E945926C0
:102100000E94C3246B017C0160EF70E068197909BB
:1021100040E058EFC6010E94820561EF70E0681947
:10212000790940E058EFC6010E948205ED89FE89D9
:1021300080819181892B09F460C15801409004028B
:1021400050900502609006027090070240920002D3
:1021500050920102609202027092030260817181CA
:1021600080E090E00E94F42429A53AA54BA55CA547
:102170000E94AA256B017C016DA57EA58FA598A95B
:102180000E94F4249B01AC01C701B6010E94F32315
:102190002BA93CA94DA95EA90E94F2236B017C01E9
:1021A00060930402709305028093060290930702E5
:1021B0006093F8017093F9018093FA019093FB0109
:1021C000AEEEB1E04D925D926D927C921397EFA1CD
:1021D000F8A584819581A681B78181939193A1937C
:1021E000B1932DA13EA1E217F30799F70FA118A50E
:1021F000B0E0A0E0F0E0E0E0CD8EDE8EEF8EF8A261
:102200004501E9A8FAA8DF2ECE2EF801619171915F
:10221000819191918F012B2F3A2F4D2D5C2D0E9492
:10222000F3230E151F0529F0B62FA72FD82EC92E80
:10223000ECCFCD8CDE8CEF8CF8A05401162F072F3D
:10224000882E992E862F902FA82DB92D8093F201DC
:102250009093F301A093F401B093F5018093FC01F6
:102260009093FD01A093FE01B093FF01A3019201A1
:10227000C701B6010E94F2232B013C0160930802C2
:102280007093090280930A0290930B022091090136
:1022900030910A0140910B0150910C012D8F3E8F1E
:1022A0004F8F58A3C701B6010E94A62518165CF0EF
:1022B0002D8D3E8D4F8D58A15058C701B6010E94FB
:1022C00057248823C4F5A7019601C701B6010E94CF
:1022D000F3236B017C012DEC3CEC4CE45FE3612FBC
:1022E000702F882D992D0E94AA259B01AC01C70152
:1022F000B6010E94F3236B017C0120E030E040E056
:102300005FE3C301B2010E94AA259B01AC01C70192
:10231000B6010E94F32360930C0270930D02809328
:102320000E0290930F020E9459260E94C3247093BC
:10233000F7016093F6018091F6019091F70118166C
:1023400019062CF099230CF465C08F89988DA6E8A6
:10235000B0E02D913C9111972817390728F4ED91A1
:10236000FC91F88FEF8B02C0988F8F8BEF89F88DDF
:10237000A8E8B0E01196FC93EE9343E050E0BE0174
:102380006F5F7F4F8F89988D0E94C108EE24E39480
:1023900000EE1FEF20E030E042E051E068EE70E038
:1023A00086E490E00E94690920E030E0AE014F5FD2
:1023B0005F4F68EE70E084E690E00E94690920E0DB
:1023C00030E040E051E068EE70E086E790E00E9487
:1023D00069098F89988D64E170E00E94AD279B01A7
:1023E000442737FD4095542F2D8F3E8F4F8F58A394
:1023F000498C5A8C6B8C7C8C8501AD89BE892D9162
:102400003C91EB89FC89808191812817390708F478
:1024100026CE07C0A6E8B0E08D919C911F8A188E49
:10242000A5CFE6960FB6F894DEBF0FBECDBFDF9105
:10243000CF911F910F91FF90EF90DF90CF90BF90C1
:10244000AF909F908F907F906F905F904F903F9054
:102450002F9008952F923F924F925F926F927F92AA
:102460008F929F92AF92BF92CF92DF92EF92FF92A4
:102470000F931F93CF93DF93CDB7DEB7AC970FB613
:10248000F894DEBF0FBECDBF6C017C8B6B8B5E8B77
:102490004D8B190138018091880090918900988FA7
:1024A0008F8B88E0EBE1F1E0DE011B9601900D924D
:1024B0008A95E1F76894EE24E1F800EE17E02FEF3B
:1024C0003FEFAE01455F5F4F60E070E088EC90E069
:1024D0000E9469090E94410E4B015C0120E030E03E
:1024E0004AE754E40E94A62518164CF020E030E09C
:1024F000A901C501B4010E945724882314F40E9445
:10250000410ED6016D917C91809176019091770179
:10251000681B790B80E090E00E94F4246B017C0141
:10252000EB89FC896081718180E090E00E94F42455
:102530009B01AC01C701B6010E945B246DA37EA381
:102540008FA398A78091800190918101609178017B
:102550007091790120917C0130917D01620F731F90
:10256000625E7F4F680F791F680F791F680F791FB0
:1025700080E090E00E94F4249B01AC0160E070E0F8
:1025800080EA93E40E945B2469A37AA38BA39CA3B3
:1025900060917E0170917F016D5D7F4F80E090E0E2
:1025A0000E94F4249B01AC0160E070E08CE593E4B0
:1025B0000E945B24698F7A8F8B8F9C8F5301B8C1E7
:1025C000F101D8018081882329F0109289001092AE
:1025D0008800D6C18C918823A9F31F018D011C921C
:1025E0000E94410E6B017C0120E030E04AE754E498
:1025F0000E94A62518164CF020E030E0A901C70182
:10260000B6010E945724882324F40E94410E6B01D6
:102610007C016D8D7E8D8F8D98A10E94F624A7017F
:1026200096010E94F32369A77AA78BA79CA7A30111
:1026300092010E94AA250E9459260E94C3244B01A0
:102640005C01AD89BE896D917C91E8E7F1E0808104
:102650009181680F791F80E090E00E94F42429A105
:102660003AA14BA15CA10E94AA250E9459260E9472
:10267000C3246B017C0160EF70E06819790940E0C8
:1026800058EFC6010E94820561EF70E06819790970
:1026900040E058EFC6010E948205AD89BE898D9148
:1026A0009C911197892B09F457C15801409004025D
:1026B000509005026090060270900702409200025E
:1026C0005092010260920202709203026D917C911D
:1026D00080E090E00E94F4242DA13EA14FA158A5D6
:1026E0000E94AA256B017C01E6E7F1E0608171811F
:1026F00080E090E00E94F4249B01AC01C701B60188
:102700000E94F32329A53AA54BA55CA50E94F223BC
:102710006B017C01609304027093050280930602B2
:10272000909307026093F8017093F9018093FA0186
:102730009093FB01AEEEB1E04D925D926D927C9272
:102740001397EAECF1E084819581A681B7818193AA
:102750009193A193B193B1E0EE3EFB07A1F70AEC90
:1027600011E0B0E0A0E0F0E0E0E09F2E8E2EF80156
:1027700061917191819191918F012B2F3A2F492D68
:10278000582D0E94F323F1E0023F1F0729F0B62FD6
:10279000A72F982E892EEBCF162F072F882E992E34
:1027A000862F902FA82DB92D8093F2019093F301DD
:1027B000A093F401B093F5018093FC019093FD0187
:1027C000A093FE01B093FF01A3019201C701B601DE
:1027D0000E94F2232B013C016093080270930902CE
:1027E00080930A0290930B028091090190910A0153
:1027F000A0910B01B0910C018D8F9E8FAF8FB8A36C
:102800009C01AD01C701B6010E94A62518165CF017
:102810002D8D3E8D4F8D58A15058C701B6010E9495
:1028200057248823C4F5A7019601C701B6010E9469
:10283000F3236B017C012DEC3CEC4CE45FE3612F56
:10284000702F882D992D0E94AA259B01AC01C701EC
:10285000B6010E94F3236B017C0120E030E040E0F0
:102860005FE3C301B2010E94AA259B01AC01C7012D
:10287000B6010E94F32360930C0270930D028093C3
:102880000E0290930F020E9459260E94C324709357
:10289000F7016093F6018091F6019091F701181607
:1028A00019062CF099230CF464C08F89988DA6E842
:1028B000B0E02D913C9111972817390728F4ED913C
:1028C000FC91F88FEF8B02C0988F8F8B8F89988D3A
:1028D000909389008093880043E050E0BE016F5FD1
:1028E0007F4F8F89988D0E94C108EE24E39400EEFB
:1028F0001FEF20E030E042E051E068EE70E086E457
:1029000090E00E94690920E030E0AE014F5F5F4F28
:1029100068EE70E084E690E00E94690920E030E013
:1029200040E051E068EE70E086E790E00E946909BF
:102930008F89988D64E170E00E94AD27CB01AA27B2
:1029400097FDA095BA2F8D8F9E8FAF8FB8A3498C1E
:102950005A8C6B8C7C8C8501AD89BE892D913C9104
:10296000EB89FC89808191812817390708F428CEEA
:1029700007C0A6E8B0E08D919C91188E1F8AA6CF63
:10298000AC960FB6F894DEBF0FBECDBFDF91CF91EE
:102990001F910F91FF90EF90DF90CF90BF90AF907D
:1029A0009F908F907F906F905F904F903F902F906F
:1029B00008952F923F924F925F926F927F928F92E3
:1029C0009F92AF92BF92CF92DF92EF92FF920F93BE
:1029D0001F93CF93DF93CDB7DEB7AC970FB6F894C4
:1029E000DEBF0FBECDBF6C017A8F698F588F4F8BC2
:1029F00029013801E6E8F0E0808191819093890017
:102A000080938800808191819C8F8B8F88E0E3E2A6
:102A1000F1E0DE011B9601900D928A95E1F7689432
:102A2000EE24E1F800EE17E02FEF3FEFAE01455F37
:102A30005F4F60E070E088EC90E00E9469090E94BE
:102A4000410E4B015C0120E030E04AE754E40E9473
:102A5000A62518164CF020E030E0A901C501B4010C
:102A60000E945724882314F40E94410ED6016D91D0
:102A70007C9180917A0190917B01681B790B80E0B9
:102A800090E00E94F4246B017C01E98DFA8D608155
:102A9000718180E090E00E94F4249B01AC01C701A9
:102AA000B6010E945B246D8F7E8F8F8F98A38091DB
:102AB000800190918101609178017091790120915C
:102AC0007C0130917D01620F731F625E7F4F680F42
:102AD000791F680F791F680F791F80E090E00E94CE
:102AE000F4249B01AC0160E070E080EA93E40E9472
:102AF0005B246DA37EA38FA398A760917E01709144
:102B00007F016D5D7F4F80E090E00E94F4249B0187
:102B1000AC0160E070E08CE593E40E945B2469A75F
:102B20007AA78BA79CA74201D2C1F401D30180816F
:102B3000882329F01092890010928800B9C38C91E3
:102B40008823A9F34F013D011C920E94410E6B01A5
:102B50007C0120E030E04AE754E40E94A6251816E4
:102B60004CF020E030E0A901C701B6010E945724D3
:102B7000882324F40E94410E6B017C018B8D9C8D77
:102B800064E170E00E94AD27882777FD8095982F3B
:102B90000E94F624A70196010E94F3231B012C0139
:102BA00029A53AA54BA55CA50E94AA250E945926F5
:102BB0000E94C3246B8B7C8B8D8B9E8BACE7B1E02A
:102BC0006D917C91E8E7F1E080819181680F791F38
:102BD000AF89B88D8D919C91680F791F80E090E04E
:102BE0000E94F4242DA13EA14FA158A50E94AA2520
:102BF0000E9459260E94C3246B017C0160EF70E0A3
:102C0000EB89FC896E1B7F0B40E058EFC6010E94E8
:102C1000820561EF70E08B899C89681B790B40E02D
:102C200058EFC6010E94820580910402909105022E
:102C3000A0910602B09107028B8B9C8BAD8BBE8B53
:102C40008093000290930102A0930202B0930302CA
:102C5000AF89B88D6D917C9180E090E00E94F42462
:102C60002D8D3E8D4F8D58A10E94AA256B017C01B0
:102C7000EAE7F1E06081718180E090E00E94F42455
:102C80009B01AC01C701B6010E94F323A20191018F
:102C90000E94F2236B017C01609304027093050291
:102CA00080930602909307026093F8017093F901F4
:102CB0008093FA019093FB018B899C89AD89BE8931
:102CC000EEEEF1E080839183A283B383EAECF1E03E
:102CD00084819581A681B78181939193A193B193CA
:102CE00021E0EE3EF207A1F70F2EFAECAF2EF1E055
:102CF000BF2EF02D212C312C00E010E0D5016D917C
:102D00007D918D919D915D01222D332D402F512F6D
:102D10000E94F323B2EFAB16B1E0BB0629F0262EDA
:102D2000372E082F192FEACF262E372E082F192FCE
:102D3000862F932DA02FB12F8093F2019093F30152
:102D4000A093F401B093F5018093FC019093FD01F1
:102D5000A093FE01B093FF012B893C894D895E89C8
:102D6000C701B6010E94F2236B8B7C8B8D8B9E8BEF
:102D7000609308027093090280930A0290930B02F9
:102D80008091090190910A01A0910B01B0910C0171
:102D900089A39AA3ABA3BCA39C01AD01C701B60153
:102DA0000E94A62518165CF029A13AA14BA15CA1AE
:102DB0005058C701B6010E9457248823D4F5A701B3
:102DC0009601C701B6010E94F3236B017C012DEC33
:102DD0003CEC4CE45FE3622D732D802F912F0E9419
:102DE000AA259B01AC01C701B6010E94F3236B0128
:102DF0007C0120E030E040E05FE36B897C898D89D5
:102E00009E890E94AA259B01AC01C701B6010E94C0
:102E1000F32360930C0270930D0280930E02909343
:102E20000F020E9459260E94C3247093F7016093F9
:102E3000F6018091F6019091F701181619062CF011
:102E400099230CF427C28B8D9C8DA6E8B0E02D91C0
:102E50003C9111972817390728F4ED91FC91FC8FCC
:102E6000EB8F02C09C8F8B8FEB8DFC8DA8E8B0E0C0
:102E70001196FC93EE9343E050E0BE016F5F7F4FED
:102E80008B8D9C8D0E94C108EE24E39400EE1FEF11
:102E900020E030E042E051E068EE70E086E490E04F
:102EA0000E94690920E030E0AE014F5F5F4F68EE9D
:102EB00070E084E690E00E94690920E030E040E0A4
:102EC00051E068EE70E086E790E00E946909AF8902
:102ED000B88D8D919C911197E98DFA8D208131816A
:102EE0008217930708F421CE9E8F8D8F1D921C921E
:102EF000C0C1F401D3018081882329F01092890098
:102F000010928800D5C18C918823A9F34F013D010F
:102F10001C920E94410E6B017C0120E030E04AE7E8
:102F200054E40E94A62518164CF020E030E0A901D8
:102F3000C701B6010E945724882324F40E94410E41
:102F40006B017C018B8D9C8D64E170E00E94AD274C
:102F5000882777FD8095982F0E94F624A701960177
:102F60000E94F3231B012C0129A53AA54BA55CA5C2
:102F70000E94AA250E9459260E94C3246B8B7C8B39
:102F80008D8B9E8BACE7B1E06D917C91E8E7F1E031
:102F900080819181680F791FAF89B88D8D919C9147
:102FA000680F791FED8DFE8D6E0F7F1F80E090E022
:102FB0000E94F4242DA13EA14FA158A50E94AA254C
:102FC0000E9459260E94C3246B017C0160EF70E0CF
:102FD0008B899C89681B790B40E058EFC6010E94E1
:102FE000820561EF70E0AB89BC896A1B7B0B40E016
:102FF00058EFC6010E94820580910402909105025B
:10300000A0910602B09107028B8B9C8BAD8BBE8B7F
:103010008093000290930102A0930202B0930302F6
:10302000AEE7B1E06D917C9180E090E00E94F424E5
:10303000A20191010E94F2236B017C0160930402C2
:103040007093050280930602909307026093F80143
:103050007093F9018093FA019093FB018B899C890D
:10306000AD89BE89EEEEF1E080839183A283B383C4
:10307000EAECF1E084819581A681B78181939193F7
:10308000A193B19321E0EE3EF207A1F70F2EFAECE7
:10309000AF2EF1E0BF2EF02D212C312C00E010E0FE
:1030A000D5012D913D914D915D915D01622D732D65
:1030B000802F912F0E94F323B2EFAB16B1E0BB0635
:1030C00029F0262E372E082F192FEACF262E372E3D
:1030D000082F192F862F932DA02FB12F8093F20147
:1030E0009093F301A093F401B093F5018093FC0158
:1030F0009093FD01A093FE01B093FF012B893C89C1
:103100004D895E89C701B6010E94F2236B8B7C8BCF
:103110008D8B9E8B609308027093090280930A0244
:1031200090930B028091090190910A01A0910B01EB
:10313000B0910C0189A39AA3ABA3BCA39C01AD01E0
:10314000C701B6010E94A62518165CF029A13AA174
:103150004BA15CA15058C701B6010E945724882397
:10316000D4F5A7019601C701B6010E94F3236B01B4
:103170007C012DEC3CEC4CE45FE3622D732D802F41
:10318000912F0E94AA259B01AC01C701B6010E94A4
:10319000F3236B017C0120E030E040E05FE36B89CA
:1031A0007C898D899E890E94AA259B01AC01C7015B
:1031B000B6010E94F32360930C0270930D0280937A
:1031C0000E0290930F020E9459260E94C32470930E
:1031D000F7016093F6018091F6019091F7011816BE
:1031E00019062CF099230CF45CC08B8D9C8DA6E8FD
:1031F000B0E02D913C9111972817390728F4ED91F3
:10320000FC91FC8FEB8F02C09C8F8B8FEB8DFC8D24
:10321000A8E8B0E01196FC93EE9343E050E0BE01C5
:103220006F5F7F4F8B8D9C8D0E94C108EE24E394CD
:1032300000EE1FEF20E030E042E051E068EE70E089
:1032400086E490E00E94690920E030E0AE014F5F23
:103250005F4F68EE70E084E690E00E94690920E02C
:1032600030E040E051E068EE70E086E790E00E94D8
:103270006909AF89B88D2D913C91E98DFA8D8081D6
:1032800091812817390708F434CE109289001092E2
:1032900088000EC0A6E8B0E08D919C911B8E1C8E1C
:1032A000E3CDE6E8F0E0808191811B8E1C8EAECFED
:1032B000AC960FB6F894DEBF0FBECDBFDF91CF91B5
:1032C0001F910F91FF90EF90DF90CF90BF90AF9044
:1032D0009F908F907F906F905F904F903F902F9036
:1032E00008952F923F924F925F926F927F928F92AA
:1032F0009F92AF92BF92CF92DF92EF92FF920F9385
:103300001F93CF93DF93CDB7DEB76A970FB6F894CC
:10331000DEBF0FBECDBFE0E8F1E0808191810F2ECE
:10332000F8E7CF2EF1E0DF2EF02D0F2EFCE72F2E49
:10333000F1E03F2EF02DF60160817181F1012081D5
:103340003181620F731F625E7F4F680F791F680FB4
:10335000791F680F791F80E090E00E94F4249B01A0
:10336000AC0160E070E080EA93E40E945B246B872C
:103370007C878D879E87EEE7F1E0608171816D5DCE
:103380007F4F80E090E00E94F4249B01AC0160E05C
:1033900070E08CE593E40E945B244B015C0143E008
:1033A00050E0BE016F5F7F4F82E390E00E94C10852
:1033B00020E030E048E452E4C501B4010E94AA25AF
:1033C0009B01AC0160E070E080E793E40E94F2238F
:1033D0002B013C0120E030E040E050E40E94F32368
:1033E0000E94C324EE24E3940FEF1FEF2FEF37E08A
:1033F000AE014F5F5F4F82E090E00E946909C30118
:10340000B2010E94C3246F87788B898B9A8B2FEF30
:1034100037E04FE351E06F85788980E090E00E94CB
:103420003C0543E050E0BE016F5F7F4F84E690E0D3
:103430000E94C10820E030E048EC52E4C501B4012C
:103440000E94AA259B01AC0160E070E080E793E454
:103450000E94F2232B013C0120E030E040E050E4E8
:103460000E94F3230E94C3242FEF37E0AE014F5F89
:103470005F4F82E090E00E946909C301B2010E949F
:10348000C3242FEF37E04FE351E080E090E00E944B
:103490003C0543E050E0BE016F5F7F4F86E990E05E
:1034A0000E94C10820E030E046E153E4C501B401C8
:1034B0000E94AA259B01AC0160E070E080E793E4E4
:1034C0000E94F2232B013C0120E030E040E050E478
:1034D0000E94F3230E94C3242FEF37E0AE014F5F19
:1034E0005F4F82E090E00E946909C301B2010E942F
:1034F000C3242FEF37E04FE351E080E090E00E94DB
:103500003C0543E050E0BE016F5F7F4F88EC90E0E8
:103510000E94C10820E030E048E453E4C501B40152
:103520000E94AA259B01AC0160E070E080E793E473
:103530000E94F2232B013C0120E030E040E050E407
:103540000E94F3230E94C3242FEF37E0AE014F5FA8
:103550005F4F82E090E00E946909C301B2010E94BE
:10356000C3242FEF37E04FE351E080E090E00E946A
:103570003C0543E050E0BE016F5F7F4F8AEF90E073
:103580000E94C10820E030E04AE753E4C501B401DD
:103590000E94AA259B01AC0160E070E080E793E403
:1035A0000E94F2232B013C0120E030E040E050E497
:1035B0000E94F3230E94C3242FEF37E0AE014F5F38
:1035C0005F4F82E090E00E946909C301B2010E944E
:1035D000C3242FEF37E04FE351E080E090E00E94FA
:1035E0003C050E94410E6F8B788F898F9A8FF60170
:1035F0006081718180E090E00E94F4242B853C85FD
:103600004D855E850E94AA250E9459260E94C824E5
:103610002B013C01F1016081718180E090E00E940A
:10362000F4242B853C854D855E850E94AA250E9449
:1036300059266B017C01E0E8F1E06081718180E056
:1036400090E00E94F4242B853C854D855E850E9488
:10365000AA250E9459260E94C8246B877C878D87E3
:103660009E87609176017091770180E090E00E94E2
:10367000F424A50194010E94AA250E9459260E94C3
:10368000C8246B8B7C8B8D8B9E8B2B893C893093D4
:10369000BF012093BE0160917A0170917B0180E0AF
:1036A00090E00E94F424A50194010E94AA250E94A2
:1036B00059260E94C8247093BD016093BC01EEE7B7
:1036C000F1E06081718180E090E00E94F424A50126
:1036D00094010E94AA250E9459260E94C824709332
:1036E000BB016093BA010F2EF0EF2F2E312CF02D7D
:1036F00091018B899C89281B390B3C8B2B8B6F8903
:10370000788D898D9A8D0E94C82480E090E00E9477
:10371000F424A50194010E94AA259B01AC0160E05C
:1037200070E080E793E40E94F2230E94C3240FE13B
:1037300010E02B893C89A20180E090E00E94C50541
:10374000C701B6010E94C8247B01E40CF51C8091DE
:10375000BC019091BD019101281B390B8091BE01E4
:103760009091BF01B101681B790BA701C2010E94B2
:10377000C505CB84DC84CE0CDF1C0F2EF5EFAF2EFD
:10378000B12CF02D8091BA019091BB019501281BBD
:10379000390B8091BC019091BD01B101681B790B7F
:1037A000A601C7010E94C505EB84FC84EC0CFD1C3E
:1037B0008091BA019091BB01B501681B790B9B0107
:1037C000A701C6010E94C505670194E1C90ED11C7D
:1037D0008091BA019091BB01B501681B790B2F85CF
:1037E0003889A601C7010E94C5052F8538894FE396
:1037F00051E0B901C6010E94C5056A960FB6F8945A
:10380000DEBF0FBECDBFDF91CF911F910F91FF9013
:10381000EF90DF90CF90BF90AF909F908F907F9070
:103820006F905F904F903F902F900895EF92FF928E
:103830000F931F93CF93DF93CDB7DEB727970FB6C4
:10384000F894DEBF0FBECDBF87E0EBE2F1E0DE0112
:10385000119601900D928A95E1F7E12CF12C05E08B
:1038600010E02CE330E04CE350E06AEA70E08AEAD2
:1038700090E00E94980BEE24E3940FEF1FEF20E0FE
:1038800030E0AE014F5F5F4F64EC70E086EB90E09C
:103890000E94690927960FB6F894DEBF0FBECDBF10
:1038A000DF91CF911F910F91FF90EF900895EF92CC
:1038B000FF920F931F93CF93DF93CDB7DEB7EA97B5
:1038C0000FB6F894DEBF0FBECDBF80E1E2E3F1E0BA
:1038D000DE01119601900D928A95E1F780918201A7
:1038E0009091830141E050E0BE01675C7F4F0E94F0
:1038F000C1086894EE24E1F80FEF1FEF20E030E0FC
:10390000AE014F5F5F4F67E370E08EE190E00E9491
:10391000690920E038EFAE01475C5F4F67E370E074
:103920008EEC90E00E94690986E0E2E4F1E0DE01BD
:10393000D39601900D928A95E1F7E12CF12C05E0E8
:1039400010E02CE330E04CE350E06AE570E086E400
:1039500090E00E94980BEE24E3940FEF1FEF20E01D
:1039600030E0AE014D5C5F4F63E770E080E590E0D2
:103970000E94690985E0EDE0F1E0DE019D9601908D
:103980000D928A95E1F71AAA88E0E8E4F1E0DE01F9
:10399000959601900D928A95E1F7E12CF12C05E0C6
:1039A00010E02CE330E04CE350E06AE570E088EC96
:1039B00090E00E94980BEE24E3940FEF1FEF20E0BD
:1039C00030E0AE01435D5F4F6EE670E082ED90E067
:1039D0000E94690920E030E0AE014B5D5F4F68E76F
:1039E00070E082ED90E00E94690988E0E0E5F1E096
:1039F000DE015D9601900D928A95E1F78CE0E8E595
:103A0000F1E0DE01519601900D928A95E1F7E12CEB
:103A1000F12C05E010E02CE330E044E650E06AEAE7
:103A200070E082E390E00E94980BEE24E3940FEFA5
:103A30001FEF20E030E0AE01435E5F4F69EB70E0C6
:103A40008CE390E00E94690920E030E0AE014F5E17
:103A50005F4F63EC70E08CE390E00E946909EA96A6
:103A60000FB6F894DEBF0FBECDBFDF91CF911F918F
:103A70000F91FF90EF9008958FE391E0909385016F
:103A8000809384010E9472060895E1E6F0E080E8E8
:103A9000808310828FE387B918B88FEF8AB91BB87B
:103AA0008FE284B915B882E58CBD82E880938000EE
:103AB00084E18093810084E690E090938700809376
:103AC0008600109289001092880010926F0016BA3A
:103AD00016BC8CE787BD82E084BD94E895BD8093D9
:103AE0006E0086E080937C0086EC80937A0088E10B
:103AF0000FB6F89480936000109260000FBE089596
:103B00001F920F920FB60F921124CF92DF92EF9275
:103B1000FF920F931F932F933F934F935F936F9356
:103B20007F938F939F93AF93BF93CF93EF93FF9325
:103B30008091C4019091C501A091C601B091C701C7
:103B40000196A11DB11D8093C4019093C501A0935E
:103B5000C601B093C7018091C4019091C501A091A5
:103B6000C601B091C70187379140A105B10508F49E
:103B700093C08AE090E00E9461068091AC01909130
:103B8000AD0101969093AD018093AC018091AE019F
:103B90009091AF0101969093AF018093AE01109286
:103BA000C4011092C5011092C6011092C701C1E074
:103BB000C093A5018091AE019091AF0145E050E026
:103BC0006AE971E00E94C1086894EE24E1F80FE10F
:103BD00010E02FEF3FEF4AE951E060E070E080E055
:103BE00090E00E94690980918800909189009093EB
:103BF000C9018093C8010E94410E60938C017093AB
:103C00008D0180938E0190938F018091C8019091D6
:103C1000C901C0908C01D0908D01E0908E01F09090
:103C20008F0164E170E00E94AD27882777FD8095C1
:103C3000982F0E94F624A70196010E94F323609317
:103C40008C0170938D0180938E0190938F01609110
:103C50008C0170918D0180918E0190918F0121E0F6
:103C600030E040E951E00E94FC086894EE24E1F85D
:103C70000FEF1FEF20E030E040E951E064E170E039
:103C80008AE090E00E946909C093A401C093B40146
:103C90008AE090E00E9461068091C0019091C1018C
:103CA000A091C201B091C3010196A11DB11D8093E5
:103CB000C0019093C101A093C201B093C301809150
:103CC000C0019091C101A091C201B091C30186973A
:103CD000A105B10508F4C4C08AE090E00E94610625
:103CE0001092B2010E94600D8093B2018AE090E0D0
:103CF0000E9461061092C0011092C1011092C2018F
:103D00001092C3011092B0018091B2018B3008F47F
:103D100089C08091B2014EE651E062E771E084E72C
:103D200091E00E942B0C2091740130917501C90122
:103D3000A0E0B0E09C01AD012659310941095109CB
:103D4000A0E1BFEF0E940C2822E033E040E050E009
:103D50000E94C12769017A0180EFC80ED11CE11CC5
:103D6000F11CD0927501C0927401209172013091C2
:103D70007301C901A0E0B0E09C01AD0128573109F1
:103D800041095109A0ECBEEF0E940C2824E333E066
:103D900040E050E00E94C127BA01A901405C5E4F9B
:103DA0006F4F7F4F80E491E0841B950B90937301DC
:103DB0008093720196012B5A31092B33310590F50E
:103DC00025E930E0241B350B2B33310558F526E36C
:103DD00031E0241B350B2932310570F02AE431E043
:103DE000241B350B2034314038F420EE3FEF4AE0FD
:103DF00050E0B6010E947B0A81E08093B00180917F
:103E0000080181110FC0C1E0C093B501C093A601A4
:103E10008FEF9FEF0E945A078AE090E00E946106B0
:103E2000C0930801809108018130D1F48091B601DE
:103E30009091B70101969093B7018093B6012091BC
:103E4000B001213029F41092B7011092B60108C0D8
:103E5000039730F01092B7011092B601109208014A
:103E60008091B8019091B90101969093B901809326
:103E7000B8012091B301213011F40697A0F480918C
:103E8000B8019091B901893E934020F01092B90198
:103E90001092B8018091B1018536A8F01092B3015B
:103EA0001092B10110C08091B1018F5F8093B10178
:103EB0001092B9011092B801459A81E090E00E94F9
:103EC00061064598DCCFFF91EF91CF91BF91AF9103
:103ED0009F918F917F916F915F914F913F912F9122
:103EE0001F910F91FF90EF90DF90CF900F900FBE3A
:103EF0000F901F901895CF93DF93CDB7DEB7AE9795
:103F00000FB6F894DEBF0FBECDBF0E946A0E88EEDA
:103F100093E00E9461060E94451D0E943C1D589A34
:103F2000F89478948FE284B915B882E58CBD8FEF50
:103F30009FEF0E945A0788EE93E00E9461061C8A58
:103F40001D8A1E8A1F8A8FEF9FEF0E945A0784EFF7
:103F500091E00E9461060E94B40E0F2EF4E34F2EF2
:103F6000F3E05F2E612C712CF02D6894AA24A6F842
:103F7000BB24B3942AEC31E0285D3F4F3EA72DA728
:103F80001092AD011092AC010E94571C1092A70133
:103F90000E94600D8093A7018B3008F41EC44EE68A
:103FA00051E062E771E084E791E00E942B0C2091E0
:103FB000740130917501C901A0E0B0E09C01AD0130
:103FC0002659310941095109A0E1BFEF0E940C288F
:103FD00022E033E040E050E00E94C12769017A010D
:103FE00080EFC80ED11CE11CF11CD0927501C0926B
:103FF00074012091720130917301C901A0E0B0E019
:104000009C01AD012857310941095109A0ECBEEFCF
:104010000E940C28A30192010E94C12789019A01E4
:10402000005C1E4F2F4F3F4FC501801B910B90939B
:1040300073018093720146E351E0401B510B4932FA
:10404000510570F04AE451E0401B510B403451409F
:1040500038F420E038EF4AE050E0B6010E947B0AD5
:1040600084EF91E00E94610680917201909173014A
:104070008B559109CB9708F0A0C180917401909164
:10408000750187549109CB9708F097C18FEF9FEF87
:104090000E945A0784E690E00E9461068FEF9FEF2E
:1040A0000E945A0784E690E00E9461068FEF9FEF1E
:1040B0000E945A0784EF91E00E9461060E947119E4
:1040C0000E94161C84E690E00E9461060E9471190D
:1040D0000E94161C84E690E00E9461061092AD01D9
:1040E0001092AC0104EA11E026EA31E04CEA51E01A
:1040F00068E771E086E791E00E943B0F1092AD0106
:104100001092AC0126EA31E04CEA51E06CE771E034
:104110008AE791E00E942A121092AD011092AC0140
:1041200026EA31E04CEA51E060E871E08EE791E088
:104130000E94D91410928900109288001092AD014B
:104140001092AC0180918001909181016091780181
:104150007091790120917C0130917D01620F731F74
:10416000625E7F4F680F791F680F791F680F791F94
:1041700080E090E00E94F4249B01AC0160E070E0DC
:1041800080EA93E40E945B24688F798F8A8F9B8FEB
:1041900060917E0170917F016D5D7F4F80E090E0C6
:1041A0000E94F4249B01AC0160E070E08CE593E494
:1041B0000E945B246C8F7D8F8E8F9F8F89E0E4E659
:1041C000F1E0DE011B9601900D928A95E1F768946B
:1041D000EE24E1F800EE17E02FEF3FEFAE01455F70
:1041E0005F4F60E070E088EC90E00E94690981E038
:1041F0008093B3010F2EF0EF8F2E912CF02D0F2E08
:10420000F1EF2F2E312CF02DB9C08091B501813006
:1042100029F41092890010928800B5C08091B401F1
:10422000813099F71092B4010E94410E2C8D3D8D82
:104230004E8D5F8D0E94AA250E9459260E94C3249C
:104240006CA37DA38EA39FA3E0E8F1E08081918120
:104250006091AC017091AD01A8E7B1E02D913C9166
:10426000620F731FECE7F1E020813181620F731F51
:10427000680F791F680F791F80E090E00E94F42496
:10428000288D398D4A8D5B8D0E94AA250E94592662
:104290000E94C32468A379A38AA39BA3C8A0D9A022
:1042A0008091A8019091A90143E050E0BE016F5FA9
:1042B0007F4F0E94C108EE24E39400EE1FEF20E040
:1042C00030E042E051E068EE70E086E490E00E9469
:1042D000690920E030E0AE014F5F5F4F68EE70E0AB
:1042E00084E690E00E94690920E030E040E051E07F
:1042F00068EE70E086E790E00E946909F0E4CF166E
:10430000F1E0DF06BCF4B4012CA13DA1621B730BEC
:1043100040E058EF88A199A10E948205B1014CA10B
:104320005DA1641B750B40E058EF88A199A10E9424
:1043300082051FC008A119A100541140B4018CA12D
:104340009DA1681B790B40E058EFC8010E948205CF
:10435000B101ACA1BDA16A1B7B0B40E058EFC801C5
:104360000E9482054FE150E06EEB70E0C8010E94B0
:104370008205B0E8CB16B2E0DB062CF48091A601F2
:10438000882309F442CF1092B5011092AD0110922A
:10439000AC011092A6011092B3018FEF9FEF0E9423
:1043A0005A0788EC90E00E9461068FEF9FEF0E9411
:1043B0005A0788EC90E00E94610680917401909108
:1043C00075018B5A9109CB9708F003C28091720155
:1043D00090917301C3978336910508F0FAC110924A
:1043E000A6018FEF9FEF0E945A0784E690E00E949B
:1043F00061068FEF9FEF0E945A0784E690E00E94CB
:1044000061068FEF9FEF0E945A0784EF91E00E94B0
:1044100061060E94161C84EF91E00E9461060F2E37
:10442000FEEECF2EF1E0DF2EF02DEAECF1E011925E
:10443000119211921192EC15FD05C9F71092AD0180
:104440001092AC01188E198E1A8E1B8EEAECF1E0D8
:10445000ECA3DF01B8A74C8E5D8E6E8E7F8EB9A265
:10446000A8A288C18091B501813059F44C8C5D8C33
:104470006E8C7F8CA8A0B9A0109289001092880041
:1044800084C18091B401882369F31092B4010E9421
:10449000410E4B015C018091AA019091AB0164E156
:1044A00070E00E94AD27882777FD8095982F0E94A5
:1044B000F6240E9459269B01AC01C501B4010E945B
:1044C000F3234B015C0121E030E0AE014C5E5F4F15
:1044D0000E94FC080F2EF5E0EF2EF02D0FEF1FEFDE
:1044E00020E030E0AE014C5E5F4F6EE670E080E5AC
:1044F00090E00E94690920910402309105024091E8
:1045000006025091070229A73AA74BA75CA7209360
:104510000002309301024093020250930302A5016E
:10452000940160E070E088E292E40E94F2231B01B3
:104530002C0160930402709305028093060290930D
:1045400007026093F8017093F9018093FA01909348
:10455000FB0189A59AA5ABA5BCA5EEEEF1E0808391
:104560009183A283B383ECA1F8A584819581A68170
:10457000B78181939193A193B193EC15FD05A9F7B0
:104580008CA098A410E000E0F12CE12CADA4BEA416
:10459000D4016D917D918D919D914D01212F302FF1
:1045A0004F2D5E2D0E94F3238A149B0429F0162FB1
:1045B000072FF82EE92EECCF162F072FF82EE92E15
:1045C000862F902FAF2DBE2D8093F2019093F30193
:1045D000A093F401B093F5018093FC019093FD0149
:1045E000A093FE01B093FF0129A53AA54BA55CA5B8
:1045F000C201B1010E94F2234B015C0160930802E9
:104600007093090280930A0290930B0220E030E03D
:1046100040E85FE3C201B1010E94A625181654F0DC
:1046200020E030E040E85FEBC201B1010E94572476
:104630008823C4F5A2019101C201B1010E94F323B4
:104640002B013C012DEC3CEC4CE45FE3612F702F1F
:104650008F2D9E2D0E94AA259B01AC01C301B201A2
:104660000E94F3231B012C0120E030E040E05FE3D7
:10467000C501B4010E94AA259B01AC01C201B10190
:104680000E94F32360930C0270930D0280930E023C
:1046900090930F020E9459260E94C324688F798F3D
:1046A0008A8F9B8F288D398D4A8D5B8D121613064C
:1046B0001406150624F43093AB012093AA01A6E852
:1046C000B0E08D919C91A0E0B0E0288D398D4A8DAD
:1046D0005B8D281739074A075B0744F0A6E8B0E06E
:1046E0008D919C919093AB018093AA01288D398D77
:1046F0004A8D5B8D121613061406150624F01092CF
:10470000AB011092AA018091AA019091AB01A8E897
:10471000B0E011969C938E938091AA019091AB0189
:1047200043E050E0BE016F5F7F4F0E94C108EE245E
:10473000E39400EE1FEF20E030E042E051E068EE4D
:1047400070E086E490E00E94690920E030E0AE016C
:104750004F5F5F4F68EE70E084E690E00E94690969
:1047600020E030E040E051E068EE70E086E790E065
:104770000E9469098091A601882309F473CE4C8CAC
:104780005D8C6E8C7F8CA8A0B9A0109289001092CD
:1047900088001092B5011092A60184E690E00E9474
:1047A00061068FEF9FEF0E945A0784E690E00E9417
:1047B00061068FEF9FEF0E945A0784E690E00E9407
:1047C00061068FEF9FEF0E945A0784EF91E00E94ED
:1047D000610684E690E00E94610688EE93E00E9404
:1047E0006106CECB5058BB27AA270ED075C166D123
:1047F00030F06BD120F031F49F3F11F41EF45BC117
:104800000EF4E095E7FB51C1E92F77D180F3BA1799
:10481000620773078407950718F071F49EF58FC13E
:104820000EF4E0950B2EBA2FA02D0B01B9019001CB
:104830000C01CA01A0011124FF27591B99F0593F0F
:1048400050F4503E68F11A16F040A22F232F342F57
:104850004427585FF3CF469537952795A795F040A5
:104860005395C9F77EF41F16BA0B620B730B840BBA
:10487000BAF09150A1F0FF0FBB1F661F771F881F72
:10488000C2F70EC0BA0F621F731F841F48F48795CA
:1048900077956795B795F7959E3F08F0B3CF9395B9
:1048A000880F08F09927EE0F979587950895D9D02E
:1048B00008F481E008950CD00FC107D140F0FED07C
:1048C00030F021F45F3F19F0F0C0511139C1F3C04D
:1048D00014D198F39923C9F35523B1F3951B550BC4
:1048E000BB27AA2762177307840738F09F5F5F4FC3
:1048F000220F331F441FAA1FA9F333D00E2E3AF004
:10490000E0E830D091505040E695001CCAF729D01D
:10491000FE2F27D0660F771F881FBB1F261737076C
:104920004807AB07B0E809F0BB0B802DBF01FF279C
:1049300093585F4F2AF09E3F510568F0B6C000C102
:104940005F3FECF3983EDCF3869577956795B795D6
:10495000F7959F5FC9F7880F911D9695879597F9F1
:104960000895E1E0660F771F881FBB1F621773076A
:104970008407BA0720F0621B730B840BBA0BEE1F7F
:1049800088F7E095089504D06894B111D9C00895CE
:10499000BCD088F09F5790F0B92F9927B751A0F05D
:1049A000D1F0660F771F881F991F1AF0BA95C9F7C3
:1049B00012C0B13081F0C3D0B1E00895C0C0672FFC
:1049C000782F8827B85F39F0B93FCCF38695779573
:1049D0006795B395D9F73EF490958095709561955C
:1049E0007F4F8F4F9F4F0895E89409C097FB3EF487
:1049F00090958095709561957F4F8F4F9F4F99232C
:104A0000A9F0F92F96E9BB279395F69587957795A9
:104A10006795B795F111F8CFFAF4BB0F11F460FF69
:104A20001BC06F5F7F4F8F4F9F4F16C0882311F0C1
:104A300096E911C0772321F09EE8872F762F05C0D5
:104A4000662371F096E8862F70E060E02AF09A9570
:104A5000660F771F881FDAF7880F9695879597F965
:104A60000895990F0008550FAA0BE0E8FEEF1616FF
:104A70001706E807F907C0F012161306E407F50752
:104A800098F0621B730B840B950B39F40A2661F0C6
:104A9000232B242B252B21F408950A2609F4A14069
:104AA000A6958FEF811D811D089597F99F6780E876
:104AB00070E060E008959FEF80EC089500240A9470
:104AC0001616170618060906089500240A941216E9
:104AD0001306140605060895092E0394000C11F41C
:104AE000882352F0BB0F40F4BF2B11F460FF04C0C9
:104AF0006F5F7F4F8F4F9F4F089557FD9058440F22
:104B0000551F59F05F3F71F04795880F97FB991F2C
:104B100061F09F3F79F087950895121613061406E9
:104B2000551FF2CF4695F1DF08C016161706180676
:104B3000991FF1CF86957105610508940895E89451
:104B4000BB2766277727CB0197F908958ADF08F4FA
:104B50008FEF08950BD0C0CFB1DF28F0B6DF18F08B
:104B6000952309F0A2CFA7CF1124EACFC6DFA0F387
:104B7000959FD1F3950F50E0551F629FF001729FF2
:104B8000BB27F00DB11D639FAA27F00DB11DAA1F11
:104B9000649F6627B00DA11D661F829F2227B00D5E
:104BA000A11D621F739FB00DA11D621F839FA00DE9
:104BB000611D221F749F3327A00D611D231F849F39
:104BC000600D211D822F762F6A2F11249F57504090
:104BD0008AF0E1F088234AF0EE0FFF1FBB1F661F2B
:104BE000771F881F91505040A9F79E3F510570F0E4
:104BF0005CCFA6CF5F3FECF3983EDCF386957795CC
:104C00006795B795F795E7959F5FC1F7FE2B880FDE
:104C1000911D9695879597F90895FA01EE0FFF1F5C
:104C200030962105310599F16115710561F48038DF
:104C3000BFE39B0749F168949038810561F08038A3
:104C4000BFEF9B0741F0992342F5FF3FE105310596
:104C5000210511F1E8940894E795D901AA2329F4D4
:104C6000AB2FBE2FF85FD0F310C0FF5F70F4A69596
:104C7000E0F7F73950F019F0FF3A38F49F779F9337
:104C80000CD00F9007FC905808953EF014CF60E0D0
:104C900070E080E89FE308954FE79F775F934F931D
:104CA0003F932F93E7D02F913F914F915F9152DF28
:104CB00025C02BDFE0F09E37D8F09639B8F49E3847
:104CC00048F4672F782F8827985FF9CF86957795D6
:104CD000679593959539D0F3B62FB1706B0F711D11
:104CE000811D20F4879577956795939533C04DC0C6
:104CF00027CF19F40EF0D9CE22CFDDCE06DFC8F3D0
:104D00009638C0F707F80F92E8942BE33AEA48EB9D
:104D10005FE72EDF0F920F920F924DB75EB70F92A3
:104D2000E9D0E8E6F0E03FD04F915F91EF91FF913D
:104D3000E595EE1FFF1F49F0FE57E0684427EE0F90
:104D4000441FFA95E1F74195550B5BD00F9007FE94
:104D50004FC00895882371F4772321F09850872B52
:104D6000762F07C0662311F499270DC09051862B2A
:104D700070E060E02AF09A95660F771F881FDAF7D7
:104D8000880F9695879597F908959F3F31F0915038
:104D900020F4879577956795B795880F911D96951F
:104DA000879597F90895DF93CF931F930F93FF9201
:104DB000EF92DF927B018C01689405C0DA2EEF013F
:104DC000D5DEFE01E894A591259135914591559147
:104DD000AEF3EF0119DDFE019701A801DA9479F72E
:104DE000DF90EF90FF900F911F91CF91DF91089589
:104DF0009B01AC0160E070E080E89FE35CCD55CEA4
:104E0000C4CF83DEE8F39923D9F3940F511DBBF38C
:104E10009150504094F059F0882332F0660F771F7C
:104E2000881F91505040C1F79E3F510544F7880FAD
:104E3000911D9695879597F908955F3FACF0983E40
:104E40009CF0BB27869577956795B79508F4B16078
:104E50009395C1F7BB0F58F711F460FFE8CF6F5F70
:104E60007F4F8F4F9F4FE3CF6BCE0EF08ECF23CE71
:104E700068941BCE4ADEC8F39923D1F3C6F3DF93BF
:104E8000CF931F930F93FF92C92FDD2788232AF01A
:104E90002197660F771F881FDAF720E030E040E89F
:104EA0005FEB9FE3883920F0803E30F021968F77CA
:104EB0009ADCE0E9F0E003C096DCEDEBF0E073DFB4
:104EC0008B01BE01EC01FB2E6F5771097595771FA1
:104ED000880B990B8BDD28E132E741E35FE346DE87
:104EE000AF2D9801AE01FF900F911F91CF91DF91EF
:104EF0008BDCF2CDFA01DC01AA0FBB1F9B01AC01D8
:104F0000BF5728F422273327442750781FC0B751B2
:104F100088F4AB2F0024469537952795011CA3955F
:104F2000D2F3002069F0220F331F441FB395DAF348
:104F30000DD058CC61307105A0E88A07B94630F42D
:104F40009B01AC016627772788279078309621F05F
:104F50002083318342835383089597FB072E16F4F1
:104F6000009407D077FD09D00E94112807FC05D0D6
:104F70003EF4909581959F4F0895709561957F4F70
:104F80000895052E97FB1EF400940E94D82757FD24
:104F900007D00E94252807FC03D04EF40C94D82794
:104FA00050954095309521953F4F4F4F5F4F089555
:104FB00090958095709561957F4F8F4F9F4F089585
:104FC0000E94E827332312F48A1B9B0B0C94F927C9
:104FD000A29FB001B39FC001A39F700D811D11243A
:104FE000911DB29F700D811D1124911D08950E9485
:104FF000E827B7FF0895821B930B08950E94E827C6
:10500000A59F900DB49F900DA49F800D911D11241C
:105010000895B7FF0C94FE270E94FE27821B930B76
:105020000895AA1BBB1B51E107C0AA1FBB1FA617EF
:10503000B70710F0A61BB70B881F991F5A95A9F741
:1050400080959095BC01CD010895A1E21A2EAA1B6E
:10505000BB1BFD010DC0AA1FBB1FEE1FFF1FA21728
:10506000B307E407F50720F0A21BB30BE40BF50B25
:10507000661F771F881F991F1A9469F760957095AE
:10508000809590959B01AC01BD01CF010895A8E1E9
:10509000B0E042E050E00C946C28DC01CB0103C08E
:1050A0002D910E94582841505040D0F70895262F46
:1050B000F999FECF1FBA92BD81BD20BD0FB6F894FD
:1050C000FA9AF99A0FBE019608950E945728272F41
:1050D0000C945828DC01CB01FC01F999FECF06C0E5
:1050E000F2BDE1BDF89A319600B40D9241505040A6
:0850F000B8F70895F894FFCF12
:1050F8002500647574793A00010000803F456469B1
:1051080074000048656174696E6700536F616B696C
:105118006E670052616D70696E670043616E63650A
:105128006C004163746976652070726F66696C659E
:105138003A0053746172740050726F66696C65004E
:105148004865617420746F0074656D706572617470
:0E51580075726500436F6F6C646F776E0000B8
:00000001FF
